{
  "_format": "hh-sol-artifact-1",
  "contractName": "Tracking",
  "sourceName": "contracts/Tracking.sol",
  "abi": [
    {
      "inputs": [],
      "stateMutability": "nonpayable",
      "type": "constructor"
    },
    {
      "anonymous": false,
      "inputs": [
        {
          "indexed": true,
          "internalType": "address",
          "name": "sender",
          "type": "address"
        },
        {
          "indexed": true,
          "internalType": "address",
          "name": "reciever",
          "type": "address"
        },
        {
          "indexed": false,
          "internalType": "uint256",
          "name": "pickupTime",
          "type": "uint256"
        },
        {
          "indexed": false,
          "internalType": "string",
          "name": "senderName",
          "type": "string"
        },
        {
          "indexed": false,
          "internalType": "string",
          "name": "receiverName",
          "type": "string"
        },
        {
          "indexed": false,
          "internalType": "uint256",
          "name": "distance",
          "type": "uint256"
        },
        {
          "indexed": false,
          "internalType": "uint256",
          "name": "price",
          "type": "uint256"
        }
      ],
      "name": "ShipmentCreated",
      "type": "event"
    },
    {
      "anonymous": false,
      "inputs": [
        {
          "indexed": true,
          "internalType": "address",
          "name": "sender",
          "type": "address"
        },
        {
          "indexed": true,
          "internalType": "address",
          "name": "reciever",
          "type": "address"
        },
        {
          "indexed": false,
          "internalType": "uint256",
          "name": "deliveryTime",
          "type": "uint256"
        }
      ],
      "name": "ShipmentDelivered",
      "type": "event"
    },
    {
      "anonymous": false,
      "inputs": [
        {
          "indexed": true,
          "internalType": "address",
          "name": "sender",
          "type": "address"
        },
        {
          "indexed": true,
          "internalType": "address",
          "name": "reciever",
          "type": "address"
        },
        {
          "indexed": false,
          "internalType": "uint256",
          "name": "pickupTime",
          "type": "uint256"
        }
      ],
      "name": "ShipmentInTransit",
      "type": "event"
    },
    {
      "anonymous": false,
      "inputs": [
        {
          "indexed": true,
          "internalType": "address",
          "name": "sender",
          "type": "address"
        },
        {
          "indexed": true,
          "internalType": "address",
          "name": "reciever",
          "type": "address"
        },
        {
          "indexed": false,
          "internalType": "uint256",
          "name": "amount",
          "type": "uint256"
        }
      ],
      "name": "ShipmentPaid",
      "type": "event"
    },
    {
      "inputs": [
        {
          "internalType": "address",
          "name": "_sender",
          "type": "address"
        },
        {
          "internalType": "address",
          "name": "_receiver",
          "type": "address"
        },
        {
          "internalType": "uint256",
          "name": "_index",
          "type": "uint256"
        }
      ],
      "name": "CompleteShipment",
      "outputs": [],
      "stateMutability": "nonpayable",
      "type": "function"
    },
    {
      "inputs": [
        {
          "internalType": "address",
          "name": "_reciever",
          "type": "address"
        },
        {
          "internalType": "uint256",
          "name": "_pickupTime",
          "type": "uint256"
        },
        {
          "internalType": "string",
          "name": "_senderName",
          "type": "string"
        },
        {
          "internalType": "string",
          "name": "_receiverName",
          "type": "string"
        },
        {
          "internalType": "uint256",
          "name": "_distance",
          "type": "uint256"
        },
        {
          "internalType": "uint256",
          "name": "_price",
          "type": "uint256"
        }
      ],
      "name": "createShipment",
      "outputs": [],
      "stateMutability": "payable",
      "type": "function"
    },
    {
      "inputs": [],
      "name": "getAllTranscations",
      "outputs": [
        {
          "components": [
            {
              "internalType": "address",
              "name": "sender",
              "type": "address"
            },
            {
              "internalType": "address",
              "name": "reciever",
              "type": "address"
            },
            {
              "internalType": "uint256",
              "name": "pickupTime",
              "type": "uint256"
            },
            {
              "internalType": "string",
              "name": "senderName",
              "type": "string"
            },
            {
              "internalType": "string",
              "name": "receiverName",
              "type": "string"
            },
            {
              "internalType": "uint256",
              "name": "deliveryTime",
              "type": "uint256"
            },
            {
              "internalType": "uint256",
              "name": "distance",
              "type": "uint256"
            },
            {
              "internalType": "uint256",
              "name": "price",
              "type": "uint256"
            },
            {
              "internalType": "enum Tracking.ShipmentStatus",
              "name": "status",
              "type": "uint8"
            },
            {
              "internalType": "bool",
              "name": "isPaid",
              "type": "bool"
            }
          ],
          "internalType": "struct Tracking.TypeShipment[]",
          "name": "",
          "type": "tuple[]"
        }
      ],
      "stateMutability": "view",
      "type": "function"
    },
    {
      "inputs": [],
      "name": "getBalance",
      "outputs": [
        {
          "internalType": "uint256",
          "name": "",
          "type": "uint256"
        }
      ],
      "stateMutability": "view",
      "type": "function"
    },
    {
      "inputs": [
        {
          "internalType": "address",
          "name": "_sender",
          "type": "address"
        },
        {
          "internalType": "uint256",
          "name": "_index",
          "type": "uint256"
        }
      ],
      "name": "getShipment",
      "outputs": [
        {
          "internalType": "address",
          "name": "",
          "type": "address"
        },
        {
          "internalType": "address",
          "name": "",
          "type": "address"
        },
        {
          "internalType": "uint256",
          "name": "",
          "type": "uint256"
        },
        {
          "internalType": "string",
          "name": "",
          "type": "string"
        },
        {
          "internalType": "string",
          "name": "",
          "type": "string"
        },
        {
          "internalType": "uint256",
          "name": "",
          "type": "uint256"
        },
        {
          "internalType": "uint256",
          "name": "",
          "type": "uint256"
        },
        {
          "internalType": "uint256",
          "name": "",
          "type": "uint256"
        },
        {
          "internalType": "enum Tracking.ShipmentStatus",
          "name": "",
          "type": "uint8"
        },
        {
          "internalType": "bool",
          "name": "",
          "type": "bool"
        }
      ],
      "stateMutability": "view",
      "type": "function"
    },
    {
      "inputs": [
        {
          "internalType": "address",
          "name": "_sender",
          "type": "address"
        }
      ],
      "name": "getShipmentCount",
      "outputs": [
        {
          "internalType": "uint256",
          "name": "",
          "type": "uint256"
        }
      ],
      "stateMutability": "view",
      "type": "function"
    },
    {
      "inputs": [],
      "name": "shipmentCount",
      "outputs": [
        {
          "internalType": "uint256",
          "name": "",
          "type": "uint256"
        }
      ],
      "stateMutability": "view",
      "type": "function"
    },
    {
      "inputs": [
        {
          "internalType": "address",
          "name": "",
          "type": "address"
        },
        {
          "internalType": "uint256",
          "name": "",
          "type": "uint256"
        }
      ],
      "name": "shipments",
      "outputs": [
        {
          "internalType": "address",
          "name": "sender",
          "type": "address"
        },
        {
          "internalType": "address",
          "name": "reciever",
          "type": "address"
        },
        {
          "internalType": "uint256",
          "name": "pickupTime",
          "type": "uint256"
        },
        {
          "internalType": "string",
          "name": "senderName",
          "type": "string"
        },
        {
          "internalType": "string",
          "name": "receiverName",
          "type": "string"
        },
        {
          "internalType": "uint256",
          "name": "deliveryTime",
          "type": "uint256"
        },
        {
          "internalType": "uint256",
          "name": "distance",
          "type": "uint256"
        },
        {
          "internalType": "uint256",
          "name": "price",
          "type": "uint256"
        },
        {
          "internalType": "enum Tracking.ShipmentStatus",
          "name": "status",
          "type": "uint8"
        },
        {
          "internalType": "bool",
          "name": "isPaid",
          "type": "bool"
        }
      ],
      "stateMutability": "view",
      "type": "function"
    },
    {
      "inputs": [
        {
          "internalType": "address",
          "name": "_sender",
          "type": "address"
        },
        {
          "internalType": "address",
          "name": "_reciever",
          "type": "address"
        },
        {
          "internalType": "uint256",
          "name": "_index",
          "type": "uint256"
        }
      ],
      "name": "startShipment",
      "outputs": [],
      "stateMutability": "nonpayable",
      "type": "function"
    }
  ],
  "bytecode": "0x608060405234801561001057600080fd5b5060006001819055506123d8806100286000396000f3fe6080604052600436106100865760003560e01c80638365da54116100595780638365da5414610150578063a5beca0014610196578063aace20b7146101bf578063b7dfd93d146101ea578063e16e09c41461022757610086565b806312065fe01461008b5780634c084881146100b65780635667e02f146100e15780637ff5265d14610127575b600080fd5b34801561009757600080fd5b506100a0610243565b6040516100ad9190611576565b60405180910390f35b3480156100c257600080fd5b506100cb61024b565b6040516100d891906118a6565b60405180910390f35b3480156100ed57600080fd5b5061010860048036038101906101039190611934565b6104f9565b60405161011e9a999897969594939291906119eb565b60405180910390f35b34801561013357600080fd5b5061014e60048036038101906101499190611a95565b6106d4565b005b34801561015c57600080fd5b5061017760048036038101906101729190611934565b610930565b60405161018d9a999897969594939291906119eb565b60405180910390f35b3480156101a257600080fd5b506101bd60048036038101906101b89190611a95565b610c53565b005b3480156101cb57600080fd5b506101d4611027565b6040516101e19190611576565b60405180910390f35b3480156101f657600080fd5b50610211600480360381019061020c9190611ae8565b61102d565b60405161021e9190611576565b60405180910390f35b610241600480360381019061023c9190611c4a565b611078565b005b600047905090565b60606002805480602002602001604051908101604052809291908181526020016000905b828210156104f05783829060005260206000209060090201604051806101400160405290816000820160009054906101000a900473ffffffffffffffffffffffffffffffffffffffff1673ffffffffffffffffffffffffffffffffffffffff1673ffffffffffffffffffffffffffffffffffffffff1681526020016001820160009054906101000a900473ffffffffffffffffffffffffffffffffffffffff1673ffffffffffffffffffffffffffffffffffffffff1673ffffffffffffffffffffffffffffffffffffffff1681526020016002820154815260200160038201805461035990611d3e565b80601f016020809104026020016040519081016040528092919081815260200182805461038590611d3e565b80156103d25780601f106103a7576101008083540402835291602001916103d2565b820191906000526020600020905b8154815290600101906020018083116103b557829003601f168201915b505050505081526020016004820180546103eb90611d3e565b80601f016020809104026020016040519081016040528092919081815260200182805461041790611d3e565b80156104645780601f1061043957610100808354040283529160200191610464565b820191906000526020600020905b81548152906001019060200180831161044757829003601f168201915b505050505081526020016005820154815260200160068201548152602001600782015481526020016008820160009054906101000a900460ff1660028111156104b0576104af61169d565b5b60028111156104c2576104c161169d565b5b81526020016008820160019054906101000a900460ff1615151515815250508152602001906001019061026f565b50505050905090565b6000602052816000526040600020818154811061051557600080fd5b9060005260206000209060090201600091509150508060000160009054906101000a900473ffffffffffffffffffffffffffffffffffffffff16908060010160009054906101000a900473ffffffffffffffffffffffffffffffffffffffff169080600201549080600301805461058b90611d3e565b80601f01602080910402602001604051908101604052809291908181526020018280546105b790611d3e565b80156106045780601f106105d957610100808354040283529160200191610604565b820191906000526020600020905b8154815290600101906020018083116105e757829003601f168201915b50505050509080600401805461061990611d3e565b80601f016020809104026020016040519081016040528092919081815260200182805461064590611d3e565b80156106925780601f1061066757610100808354040283529160200191610692565b820191906000526020600020905b81548152906001019060200180831161067557829003601f168201915b5050505050908060050154908060060154908060070154908060080160009054906101000a900460ff16908060080160019054906101000a900460ff1690508a565b60008060008573ffffffffffffffffffffffffffffffffffffffff1673ffffffffffffffffffffffffffffffffffffffff168152602001908152602001600020828154811061072657610725611d6f565b5b9060005260206000209060090201905060006002838154811061074c5761074b611d6f565b5b906000526020600020906009020190508373ffffffffffffffffffffffffffffffffffffffff168260010160009054906101000a900473ffffffffffffffffffffffffffffffffffffffff1673ffffffffffffffffffffffffffffffffffffffff16146107ee576040517f08c379a00000000000000000000000000000000000000000000000000000000081526004016107e590611dea565b60405180910390fd5b600060028111156108025761080161169d565b5b8260080160009054906101000a900460ff1660028111156108265761082561169d565b5b14610866576040517f08c379a000000000000000000000000000000000000000000000000000000000815260040161085d90611e56565b60405180910390fd5b60018260080160006101000a81548160ff0219169083600281111561088e5761088d61169d565b5b021790555060018160080160006101000a81548160ff021916908360028111156108bb576108ba61169d565b5b02179055508373ffffffffffffffffffffffffffffffffffffffff168573ffffffffffffffffffffffffffffffffffffffff167faafab9f94340179ff9cefd29621e1772a4b8efab8023163838f1b0a8f6ce5df584600201546040516109219190611576565b60405180910390a35050505050565b60008060006060806000806000806000806000808e73ffffffffffffffffffffffffffffffffffffffff1673ffffffffffffffffffffffffffffffffffffffff1681526020019081526020016000208c8154811061099157610990611d6f565b5b9060005260206000209060090201604051806101400160405290816000820160009054906101000a900473ffffffffffffffffffffffffffffffffffffffff1673ffffffffffffffffffffffffffffffffffffffff1673ffffffffffffffffffffffffffffffffffffffff1681526020016001820160009054906101000a900473ffffffffffffffffffffffffffffffffffffffff1673ffffffffffffffffffffffffffffffffffffffff1673ffffffffffffffffffffffffffffffffffffffff16815260200160028201548152602001600382018054610a7190611d3e565b80601f0160208091040260200160405190810160405280929190818152602001828054610a9d90611d3e565b8015610aea5780601f10610abf57610100808354040283529160200191610aea565b820191906000526020600020905b815481529060010190602001808311610acd57829003601f168201915b50505050508152602001600482018054610b0390611d3e565b80601f0160208091040260200160405190810160405280929190818152602001828054610b2f90611d3e565b8015610b7c5780601f10610b5157610100808354040283529160200191610b7c565b820191906000526020600020905b815481529060010190602001808311610b5f57829003601f168201915b505050505081526020016005820154815260200160068201548152602001600782015481526020016008820160009054906101000a900460ff166002811115610bc857610bc761169d565b5b6002811115610bda57610bd961169d565b5b81526020016008820160019054906101000a900460ff1615151515815250509050806000015181602001518260400151836060015184608001518560a001518660c001518760e001518861010001518961012001519a509a509a509a509a509a509a509a509a509a50509295989b9194979a5092959850565b60008060008573ffffffffffffffffffffffffffffffffffffffff1673ffffffffffffffffffffffffffffffffffffffff1681526020019081526020016000208281548110610ca557610ca4611d6f565b5b90600052602060002090600902019050600060028381548110610ccb57610cca611d6f565b5b906000526020600020906009020190508373ffffffffffffffffffffffffffffffffffffffff168260010160009054906101000a900473ffffffffffffffffffffffffffffffffffffffff1673ffffffffffffffffffffffffffffffffffffffff1614610d6d576040517f08c379a0000000000000000000000000000000000000000000000000000000008152600401610d6490611ec2565b60405180910390fd5b60016002811115610d8157610d8061169d565b5b8260080160009054906101000a900460ff166002811115610da557610da461169d565b5b14610de5576040517f08c379a0000000000000000000000000000000000000000000000000000000008152600401610ddc90611f2e565b60405180910390fd5b8160080160019054906101000a900460ff1615610e37576040517f08c379a0000000000000000000000000000000000000000000000000000000008152600401610e2e90611f9a565b60405180910390fd5b60028260080160006101000a81548160ff02191690836002811115610e5f57610e5e61169d565b5b021790555060028160080160006101000a81548160ff02191690836002811115610e8c57610e8b61169d565b5b02179055504281600501819055504282600501819055506000826007015490508260000160009054906101000a900473ffffffffffffffffffffffffffffffffffffffff1673ffffffffffffffffffffffffffffffffffffffff166108fc829081150290604051600060405180830381858888f19350505050158015610f16573d6000803e3d6000fd5b5060018360080160016101000a81548160ff02191690831515021790555060018260080160016101000a81548160ff0219169083151502179055508473ffffffffffffffffffffffffffffffffffffffff168673ffffffffffffffffffffffffffffffffffffffff167f3746ccceb54f44c9b0ee0120e596168d07ec9f6ca303cfdd9810d3b2e2686a2e8560050154604051610fb29190611576565b60405180910390a38473ffffffffffffffffffffffffffffffffffffffff168673ffffffffffffffffffffffffffffffffffffffff167f2b6f2473aebafaf8d0889669490135928ec4454d2e29a103fd39693bbca6aef1836040516110179190611576565b60405180910390a3505050505050565b60015481565b60008060008373ffffffffffffffffffffffffffffffffffffffff1673ffffffffffffffffffffffffffffffffffffffff168152602001908152602001600020805490509050919050565b8034146110ba576040517f08c379a00000000000000000000000000000000000000000000000000000000081526004016110b19061202c565b60405180910390fd5b60006040518061014001604052803373ffffffffffffffffffffffffffffffffffffffff1681526020018873ffffffffffffffffffffffffffffffffffffffff16815260200187815260200186815260200185815260200160008152602001848152602001838152602001600060028111156111395761113861169d565b5b81526020016000151581525090506000803373ffffffffffffffffffffffffffffffffffffffff1673ffffffffffffffffffffffffffffffffffffffff16815260200190815260200160002081908060018154018082558091505060019003906000526020600020906009020160009091909190915060008201518160000160006101000a81548173ffffffffffffffffffffffffffffffffffffffff021916908373ffffffffffffffffffffffffffffffffffffffff16021790555060208201518160010160006101000a81548173ffffffffffffffffffffffffffffffffffffffff021916908373ffffffffffffffffffffffffffffffffffffffff16021790555060408201518160020155606082015181600301908161125c91906121f8565b50608082015181600401908161127291906121f8565b5060a0820151816005015560c0820151816006015560e082015181600701556101008201518160080160006101000a81548160ff021916908360028111156112bd576112bc61169d565b5b02179055506101208201518160080160016101000a81548160ff0219169083151502179055505050600160008154809291906112f8906122f9565b919050555060026040518061014001604052803373ffffffffffffffffffffffffffffffffffffffff1681526020018973ffffffffffffffffffffffffffffffffffffffff168152602001888152602001878152602001868152602001600081526020018581526020018481526020016000600281111561137c5761137b61169d565b5b815260200160001515815250908060018154018082558091505060019003906000526020600020906009020160009091909190915060008201518160000160006101000a81548173ffffffffffffffffffffffffffffffffffffffff021916908373ffffffffffffffffffffffffffffffffffffffff16021790555060208201518160010160006101000a81548173ffffffffffffffffffffffffffffffffffffffff021916908373ffffffffffffffffffffffffffffffffffffffff16021790555060408201518160020155606082015181600301908161145e91906121f8565b50608082015181600401908161147491906121f8565b5060a0820151816005015560c0820151816006015560e082015181600701556101008201518160080160006101000a81548160ff021916908360028111156114bf576114be61169d565b5b02179055506101208201518160080160016101000a81548160ff02191690831515021790555050508673ffffffffffffffffffffffffffffffffffffffff163373ffffffffffffffffffffffffffffffffffffffff167f55bb780815914dd11768a8a31daae6f7bd7de4eb68858faca3540d74a1606a29888888888860405161154c959493929190612341565b60405180910390a350505050505050565b6000819050919050565b6115708161155d565b82525050565b600060208201905061158b6000830184611567565b92915050565b600081519050919050565b600082825260208201905092915050565b6000819050602082019050919050565b600073ffffffffffffffffffffffffffffffffffffffff82169050919050565b60006115e8826115bd565b9050919050565b6115f8816115dd565b82525050565b6116078161155d565b82525050565b600081519050919050565b600082825260208201905092915050565b60005b8381101561164757808201518184015260208101905061162c565b60008484015250505050565b6000601f19601f8301169050919050565b600061166f8261160d565b6116798185611618565b9350611689818560208601611629565b61169281611653565b840191505092915050565b7f4e487b7100000000000000000000000000000000000000000000000000000000600052602160045260246000fd5b600381106116dd576116dc61169d565b5b50565b60008190506116ee826116cc565b919050565b60006116fe826116e0565b9050919050565b61170e816116f3565b82525050565b60008115159050919050565b61172981611714565b82525050565b60006101408301600083015161174860008601826115ef565b50602083015161175b60208601826115ef565b50604083015161176e60408601826115fe565b50606083015184820360608601526117868282611664565b915050608083015184820360808601526117a08282611664565b91505060a08301516117b560a08601826115fe565b5060c08301516117c860c08601826115fe565b5060e08301516117db60e08601826115fe565b506101008301516117f0610100860182611705565b50610120830151611805610120860182611720565b508091505092915050565b600061181c838361172f565b905092915050565b6000602082019050919050565b600061183c82611591565b611846818561159c565b935083602082028501611858856115ad565b8060005b8581101561189457848403895281516118758582611810565b945061188083611824565b925060208a0199505060018101905061185c565b50829750879550505050505092915050565b600060208201905081810360008301526118c08184611831565b905092915050565b6000604051905090565b600080fd5b600080fd5b6118e5816115dd565b81146118f057600080fd5b50565b600081359050611902816118dc565b92915050565b6119118161155d565b811461191c57600080fd5b50565b60008135905061192e81611908565b92915050565b6000806040838503121561194b5761194a6118d2565b5b6000611959858286016118f3565b925050602061196a8582860161191f565b9150509250929050565b61197d816115dd565b82525050565b600082825260208201905092915050565b600061199f8261160d565b6119a98185611983565b93506119b9818560208601611629565b6119c281611653565b840191505092915050565b6119d6816116f3565b82525050565b6119e581611714565b82525050565b600061014082019050611a01600083018d611974565b611a0e602083018c611974565b611a1b604083018b611567565b8181036060830152611a2d818a611994565b90508181036080830152611a418189611994565b9050611a5060a0830188611567565b611a5d60c0830187611567565b611a6a60e0830186611567565b611a786101008301856119cd565b611a866101208301846119dc565b9b9a5050505050505050505050565b600080600060608486031215611aae57611aad6118d2565b5b6000611abc868287016118f3565b9350506020611acd868287016118f3565b9250506040611ade8682870161191f565b9150509250925092565b600060208284031215611afe57611afd6118d2565b5b6000611b0c848285016118f3565b91505092915050565b600080fd5b600080fd5b7f4e487b7100000000000000000000000000000000000000000000000000000000600052604160045260246000fd5b611b5782611653565b810181811067ffffffffffffffff82111715611b7657611b75611b1f565b5b80604052505050565b6000611b896118c8565b9050611b958282611b4e565b919050565b600067ffffffffffffffff821115611bb557611bb4611b1f565b5b611bbe82611653565b9050602081019050919050565b82818337600083830152505050565b6000611bed611be884611b9a565b611b7f565b905082815260208101848484011115611c0957611c08611b1a565b5b611c14848285611bcb565b509392505050565b600082601f830112611c3157611c30611b15565b5b8135611c41848260208601611bda565b91505092915050565b60008060008060008060c08789031215611c6757611c666118d2565b5b6000611c7589828a016118f3565b9650506020611c8689828a0161191f565b955050604087013567ffffffffffffffff811115611ca757611ca66118d7565b5b611cb389828a01611c1c565b945050606087013567ffffffffffffffff811115611cd457611cd36118d7565b5b611ce089828a01611c1c565b9350506080611cf189828a0161191f565b92505060a0611d0289828a0161191f565b9150509295509295509295565b7f4e487b7100000000000000000000000000000000000000000000000000000000600052602260045260246000fd5b60006002820490506001821680611d5657607f821691505b602082108103611d6957611d68611d0f565b5b50919050565b7f4e487b7100000000000000000000000000000000000000000000000000000000600052603260045260246000fd5b7f496e76616c69642052656369657665722e000000000000000000000000000000600082015250565b6000611dd4601183611983565b9150611ddf82611d9e565b602082019050919050565b60006020820190508181036000830152611e0381611dc7565b9050919050565b7f536869706d656e7420616c726561647920696e205472616e7369742e00000000600082015250565b6000611e40601c83611983565b9150611e4b82611e0a565b602082019050919050565b60006020820190508181036000830152611e6f81611e33565b9050919050565b7f496e76616c69642072656369657665722e000000000000000000000000000000600082015250565b6000611eac601183611983565b9150611eb782611e76565b602082019050919050565b60006020820190508181036000830152611edb81611e9f565b9050919050565b7f536869706d656e74206e6f7420696e207472616e736974000000000000000000600082015250565b6000611f18601783611983565b9150611f2382611ee2565b602082019050919050565b60006020820190508181036000830152611f4781611f0b565b9050919050565b7f536869706d656e7420616c726561647920506169640000000000000000000000600082015250565b6000611f84601583611983565b9150611f8f82611f4e565b602082019050919050565b60006020820190508181036000830152611fb381611f77565b9050919050565b7f5061796d656e7420616d6f756e74206d757374206d617463682074686520616d60008201527f6f756e742e000000000000000000000000000000000000000000000000000000602082015250565b6000612016602583611983565b915061202182611fba565b604082019050919050565b6000602082019050818103600083015261204581612009565b9050919050565b60008190508160005260206000209050919050565b60006020601f8301049050919050565b600082821b905092915050565b6000600883026120ae7fffffffffffffffffffffffffffffffffffffffffffffffffffffffffffffffff82612071565b6120b88683612071565b95508019841693508086168417925050509392505050565b6000819050919050565b60006120f56120f06120eb8461155d565b6120d0565b61155d565b9050919050565b6000819050919050565b61210f836120da565b61212361211b826120fc565b84845461207e565b825550505050565b600090565b61213861212b565b612143818484612106565b505050565b5b818110156121675761215c600082612130565b600181019050612149565b5050565b601f8211156121ac5761217d8161204c565b61218684612061565b81016020851015612195578190505b6121a96121a185612061565b830182612148565b50505b505050565b600082821c905092915050565b60006121cf600019846008026121b1565b1980831691505092915050565b60006121e883836121be565b9150826002028217905092915050565b6122018261160d565b67ffffffffffffffff81111561221a57612219611b1f565b5b6122248254611d3e565b61222f82828561216b565b600060209050601f8311600181146122625760008415612250578287015190505b61225a85826121dc565b8655506122c2565b601f1984166122708661204c565b60005b8281101561229857848901518255600182019150602085019450602081019050612273565b868310156122b557848901516122b1601f8916826121be565b8355505b6001600288020188555050505b505050505050565b7f4e487b7100000000000000000000000000000000000000000000000000000000600052601160045260246000fd5b60006123048261155d565b91507fffffffffffffffffffffffffffffffffffffffffffffffffffffffffffffffff8203612336576123356122ca565b5b600182019050919050565b600060a0820190506123566000830188611567565b81810360208301526123688187611994565b9050818103604083015261237c8186611994565b905061238b6060830185611567565b6123986080830184611567565b969550505050505056fea26469706673582212204e5294db0db2d2244f0ccc82af4222f9458e470ae14135b86c2814b2efe7c2e464736f6c63430008120033",
  "linkReferences": {},
  "deployedLinkReferences": {}
}